:020000040000FA
:060000000A128A110C280F
:10000800FE00030EF0000A08F1000A128A113228D5
:100018000A128A110F28F301F40183010A128A11C6
:1000280015280730F2007208831603139F048116FF
:10003800FF308500011681158B168B17FF30831250
:1000480003138100831603138801831203138801A5
:10005800730888002C280A128A110C280B1D3528D1
:10006800362841280130F3070318F40A0030F40752
:10007800FF308312031381000B1171088A00700E80
:080088008300FE0E7E0E09004C
:02400E003A3F37
:00000001FF
