:020000040000FA
:100000000A128A11EC2F00308A000408840A820741
:100010000034013400340A34003464340034E834E9
:100020000334103427344134643463342034563478
:1000300061346C347534653420343D3420342534D7
:0800400064340D340A3400346D
:100B68007E088A007F0882000A128A11B4250A12B8
:100B78008A118000840A04087D0603190034FF0ADC
:100B88000319FE0AB82D0D340A345034493443345D
:100B9800233439342D3441342F344434203443340D
:100BA8006F346E3476346534723474346534723428
:100BB8000D340A340034780879040319E42DE52D3E
:100BC800142EFD01FD0AF32D01300310F80DF90D67
:100BD800FF3E031DE92D0130FC007C08FD07F91FCD
:100BE800F62DF72DE82D79087B02031DFD2D7808D9
:100BF8007A02031C002E012E072E7808FA027908C3
:100C0800031CFB03FB0201300310F90CF80CFF3E38
:100C1800031D082E0130FD02031D132E142EF72D7F
:100C28007B08F9007A08F8000800F501F601700859
:100C380071040319202E212E582EF701F70A2F2EA2
:100C480001300310F00DF10DFF3E031D252E01307C
:100C5800F4007408F707F11F322E332E242E0130CA
:100C68000310F50DF60DFF3E031D342E71087302B7
:100C7800031D402E70087202031C432E442E4B2E77
:100C88007008F2027108031CF303F30275140130B3
:100C98000310F10CF00CFF3E031D4C2E0130F7023F
:100CA800031D572E582E332E7608F1007508F000D4
:100CB8000800831603138801831203138801FF3089
:100CC800831603138500831203139F171F139F12A4
:100CD8001F129F11831603139F171F179F151F15A8
:100CE8009F141F10831203131F1420308312031341
:100CF800C500C50B7D2E0000FF3083160313870047
:100D080014309900181518128312031398178316B4
:100D180003130C121813981683120313C801C90180
:100D2800A92E83160313981C9A2E9B2E952E831298
:100D380003134808203E84008313000899000130FB
:100D4800C8070318C90A0030C9074808203E8400AC
:100D580083130008031DB12EB22E952E83120313A0
:100D68001F151F19B82EB92EB52E1E08CB008316D5
:100D780003131E0883120313CA000B30C50045086D
:100D8800B8004B08BA004A08B90020300A128A1184
:100D980004270A128A1183120313C801C901E82E15
:100DA80083160313981CD92EDA2ED42E831203131C
:100DB8004808203E84008313000899000130C807C2
:100DC8000318C90A0030C9074808203E8400831365
:100DD8000008031DF02EF12ED42E0D3083120313BC
:100DE800C700AF30C600B530C500C50BF92EC60B1D
:100DF800F92EC70BF92E002FB22E0A128A110028DD
:100E080083120313C3003930BB003B08BE00D52F43
:100E1800253044060319112F122F1E2F4408BB003A
:100E2800430884003B08831380000130BB003B0863
:100E3800C307D52FBF010130B807FF30380784003A
:100E48000A128A1103200A128A11C400BB00BC01CD
:100E58003C08003A0319312FD52F3B08003A0319F3
:100E6800E72F643A03193C2F0D3A03193C2FD52F6D
:100E78003E08840083130008C100840A0008C200E9
:100E88000230BB003B08BE07C21F4B2F4C2F552F0B
:100E98000330BB003B08BF04C109C209C10A0319DA
:100EA800C20AC401C40A4408BB003B07013E8400CF
:100EB8000A128A1103200A128A11BC000A128A1126
:100EC80003200A128A11BD003D084202031D6E2F3D
:100ED8003C0841020318712F722F732F7D2F0130A8
:100EE800BB003B08C40705304406031D7C2F7D2F3B
:100EF800572F3F0803390319822F832F8E2F2D3048
:100F0800BB00430884003B08831380000130BB000A
:100F18003B08C3074408BB003B08C000CC2F0A307D
:100F2800F8000030F9004008BB003B07013E840090
:100F38000A128A1103200A128A11F0000A128A1171
:100F480003200A128A11F1004208F3004108F20056
:100F58000A128A1119260A128A117108FB007008F0
:100F6800FA000A128A11DF250A128A117808303E1F
:100F780083120313BC003C08C4004408BB004308A8
:100F880084003B08831380000130BB003B08C30783
:100F9800FF30BB003B08C007400A031DD42FD52FE4
:100FA800932F0130B807FF30380784000A128A11DE
:100FB80003200A128A11BB003B08C4004408031D21
:100FC800E62FE72F0C2F43088400831380010800C5
:100FD80083133830FD000530FE00C730FF00203095
:100FE80084000A128A11B8250A128A11CA01CB0193
:080FF80083010A128A115D2E2B
:02400E003A3F37
:00000001FF
