:020000040000FA
:060000000A128A110C280F
:10000800FE00030EF1000A08F2000A128A119F2866
:100018000A128A110F2883133430FD000030FE00C5
:100028007830FF00203084000A128A1190200A12CA
:100038008A11F50183010A128A112228FF308316DA
:10004800031387001430990018151812831203132C
:100058009817831603130C12181398168312031398
:1000680018131816831603138C160B178B17FC30EE
:100078008800831203138801F301F40157288316BB
:100088000313981C4828492843287308203E8400F5
:10009800831300088312031399000130F307031830
:1000A800F40A0030F4077308203E84008313000824
:1000B800031D5F286028432872307506031D6528D4
:1000C80066286A2801308312031388007930750680
:1000D800031D6F28702860280230831203138800DC
:1000E80060280A128A110C280D340A3445346D34FC
:1000F800623465346434643465346434203453348D
:1001080079347334743465346D3473342134003481
:100118007E088A007F0882000A128A118C200A123F
:100128008A118000840A04087D0603190034FF0A36
:100138000319FE0A9028831203138C1EA428A528ED
:10014800AB281A08F0007008F500750899007208C5
:0C0158008A00710E8300FE0E7E0E09006E
:02400E003A3F37
:00000001FF
