:020000040000FA
:060000000A128A110C280F
:10000800FE00030EF0000A08F1000A128A115828AF
:100018000A128A110F2883010A128A1113288316DB
:100028000313811301170B168B17FC3088008312FA
:100038000313880183120313081D23282428352855
:100048000330F4008A30F3005530F200F20B2A280E
:10005800F30B2A28F40B2A283128831203130814D7
:100068003628081088143330F400BB30F300DF3032
:10007800F200F20B3D28F30B3D28F40B3D284428F1
:100088008312031388101A30F4005E30F3006E30C8
:10009800F200F20B4D28F30B4D28F40B4D2800000D
:1000A8001E280A128A110C288B1C5B285C286028E1
:1000B8008312031308148B1071088A00700E8300D2
:0600C800FE0E7E0E090091
:02400E003A3F37
:00000001FF
