:020000040000FA
:060000000A128A110C280F
:10000800FE00030EF0000A08F1000A128A114D28BA
:100018000A128A110F28F501F60183010A128A11C2
:1000280015288316031381128111011581100110FF
:100038008B168B176430831203138100FC308316F0
:10004800031388008312031388018312031308140F
:100058000330F4008A30F3005530F200F20B3228F6
:10006800F30B3228F40B32283928831203130810B3
:100078000330F4008A30F3005530F200F20B4228C6
:10008800F30B4228F40B4228492829280A128A111E
:100098000C280B1D5028512872280130F507031829
:1000A800F60A0030F607643075067604031D5D28ED
:1000B8005E286128831203138810C93075067604F8
:1000C800031D672868286D28831203138814F50117
:1000D800F60164308312031381000B1171088A0042
:0A00E800700E8300FE0E7E0E09006C
:02400E003A3F37
:00000001FF
