:020000040000FA
:060000000A128A110C280F
:10000800FE00030EF0000A08F1000A128A11FF2808
:100018000A128A110F28F801F90183010A128A11BC
:100028001528831203139210121012179212121627
:10003800921112158B170B17831603138C14831246
:10004800031397151715971417149D151D159D144F
:100058001D14FF30831603139200F9308700FE3019
:100068008800831203138801F601F7017708F3006B
:100078007608F200730DF30CF20C730DF30CF20C0E
:10008800720883120313950076080239F200F20E03
:10009800F20D17087206DF397206970076080139E3
:1000A800F200F20E17087206EF3972069700FF3059
:1000B800F2000330F30076087202F4007708031C9C
:1000C800770A7302F500750DF50CF40C750DF50C37
:1000D800F40C74089B0076090239F200F20EF20D56
:1000E8001D087206DF3972069D0076090139F20093
:1000F800F20E1D087206EF3972069D000730F300F4
:100108007D30F200F20B8628F30B86280130F607C3
:100118000318F70A0030F7077708803AFF008430A1
:100128007F02031D992800307602031C9C289D2815
:100138003A28FF30F6000330F7007708F300760816
:10014800F200730DF30CF20C730DF30CF20C720841
:1001580083120313950076080239F200F20EF20DAD
:1001680017087206DF397206970076080139F2001F
:10017800F20E17087206EF3972069700FF30F20088
:100188000330F30076087202F4007708031C770A3C
:100198007302F500750DF50CF40C750DF50CF40CE7
:1001A80074089B0076090239F200F20EF20D1D0860
:1001B8007206DF3972069D0076090139F200F20EE7
:1001C8001D087206EF3972069D000730F3007D3076
:1001D800F200F20BED28F30BED28FF30F6070318B9
:1001E800F70AFF30F707F71FFA28FB28A128382855
:1001F8000A128A110C28831203138C1C042905295E
:1002080026290130F8070318F90A0030F907C33026
:1002180078067904031D112912291329081086303C
:100228007806031D1B297903031D1B291C291F2977
:100238000814F801F901FF308316031392008312A2
:1002480003138C1071088A00700E8300FE0E7E0E58
:0202580009009B
:02400E003A3F37
:00000001FF
