:020000040000FA
:060000000A128A110C280F
:10000800FE00030EF0000A08F1000A128A115228B5
:100018000A128A110F28F501F60183010A128A11C2
:1000280015288312031390161016901510150B1728
:1000380090101014831603130C148B170B308312B3
:1000480003138F00DC308E0083160313880183129C
:10005800031388018312031388140330F4008A30D1
:10006800F3005530F200F20B3728F30B3728F40B66
:1000780037283E288312031388100330F4008A308F
:10008800F3005530F200F20B4728F30B4728F40B26
:1000980047284E282E280A128A110C288312031387
:1000A8000C1C5728582874280130F5070318F60A3D
:1000B8000030F60775037604031D63286428652855
:1000C8000810023075067604031D6B286C286F280B
:1000D8000814F501F6010B308F00DC308E000C108F
:0E00E80071088A00700E8300FE0E7E0E090065
:02400E003A3F37
:00000001FF
